{
  "contractName": "Invoice",
  "abi": [
    {
      "inputs": [],
      "stateMutability": "nonpayable",
      "type": "constructor"
    },
    {
      "inputs": [
        {
          "internalType": "address",
          "name": "",
          "type": "address"
        }
      ],
      "name": "addressToAmountFunded",
      "outputs": [
        {
          "internalType": "uint256",
          "name": "",
          "type": "uint256"
        }
      ],
      "stateMutability": "view",
      "type": "function"
    },
    {
      "inputs": [
        {
          "internalType": "uint256",
          "name": "",
          "type": "uint256"
        }
      ],
      "name": "funders",
      "outputs": [
        {
          "internalType": "address",
          "name": "",
          "type": "address"
        }
      ],
      "stateMutability": "view",
      "type": "function"
    },
    {
      "inputs": [],
      "name": "owner",
      "outputs": [
        {
          "internalType": "address",
          "name": "",
          "type": "address"
        }
      ],
      "stateMutability": "view",
      "type": "function"
    },
    {
      "inputs": [],
      "name": "fund",
      "outputs": [],
      "stateMutability": "payable",
      "type": "function"
    },
    {
      "inputs": [],
      "name": "withdraw",
      "outputs": [],
      "stateMutability": "payable",
      "type": "function"
    }
  ],
  "bytecode": "0x608060405234801561001057600080fd5b5033600260006101000a81548173ffffffffffffffffffffffffffffffffffffffff021916908373ffffffffffffffffffffffffffffffffffffffff16021790555061039e806100616000396000f3fe60806040526004361061004a5760003560e01c80633ccfd60b1461004f5780633e47d6f3146100595780638da5cb5b146100be578063b60d428814610115578063dc0d3dff1461011f575b600080fd5b61005761019a565b005b34801561006557600080fd5b506100a86004803603602081101561007c57600080fd5b81019080803573ffffffffffffffffffffffffffffffffffffffff16906020019092919050505061023d565b6040518082815260200191505060405180910390f35b3480156100ca57600080fd5b506100d3610255565b604051808273ffffffffffffffffffffffffffffffffffffffff1673ffffffffffffffffffffffffffffffffffffffff16815260200191505060405180910390f35b61011d61027b565b005b34801561012b57600080fd5b506101586004803603602081101561014257600080fd5b810190808035906020019092919050505061032c565b604051808273ffffffffffffffffffffffffffffffffffffffff1673ffffffffffffffffffffffffffffffffffffffff16815260200191505060405180910390f35b600260009054906101000a900473ffffffffffffffffffffffffffffffffffffffff1673ffffffffffffffffffffffffffffffffffffffff163373ffffffffffffffffffffffffffffffffffffffff16146101f457600080fd5b3373ffffffffffffffffffffffffffffffffffffffff166108fc479081150290604051600060405180830381858888f1935050505015801561023a573d6000803e3d6000fd5b50565b60006020528060005260406000206000915090505481565b600260009054906101000a900473ffffffffffffffffffffffffffffffffffffffff1681565b346000803373ffffffffffffffffffffffffffffffffffffffff1673ffffffffffffffffffffffffffffffffffffffff168152602001908152602001600020600082825401925050819055506001339080600181540180825580915050600190039060005260206000200160009091909190916101000a81548173ffffffffffffffffffffffffffffffffffffffff021916908373ffffffffffffffffffffffffffffffffffffffff160217905550565b6001818154811061033957fe5b906000526020600020016000915054906101000a900473ffffffffffffffffffffffffffffffffffffffff168156fea2646970667358221220559ae67d3732b1d58edaedd2ae2cd30f4bcc76dffa7bd6a24cf03bd5bd1faa2f64736f6c63430006020033",
  "source": "// SPDX-License-Identifier: MIT\n\n// Smart contract that lets anyone deposit ETH into the contract\n// Only the owner of the contract can withdraw the ETH\n\npragma solidity ^0.6.0;\n\n// Get the latest ETH/USD price from chainlink price feed\n\ncontract Invoice {\n    // safe math library check uint256 for integer overflows\n\n    //mapping to store which address depositeded how much ETH\n    mapping(address => uint256) public addressToAmountFunded;\n    // array of addresses who deposited\n    address[] public funders;\n    //address of the owner (who deployed the contract)\n    address public owner;\n\n    // the first person to deploy the contract is\n    // the owner\n    constructor() public {\n        owner = msg.sender;\n    }\n\n    function fund() public payable {\n        // 18 digit number to be compared with donated amount\n        //if not, add to mapping and funders array\n        addressToAmountFunded[msg.sender] += msg.value;\n        funders.push(msg.sender);\n    }\n\n    //function to get the version of the chainlink pricefeed\n\n    //modifier: https://medium.com/coinmonks/solidity-tutorial-all-about-modifiers-a86cf81c14cb\n\n    // onlyOwner modifer will first check the condition inside it\n    // and\n    // if true, withdraw function will be executed\n    function withdraw() public payable {\n        require(msg.sender == owner);\n        // If you are using version eight (v0.8) of chainlink aggregator interface,\n        // you will need to change the code below to\n        payable(msg.sender).transfer(address(this).balance);\n        //msg.sender.transfer(address(this).balance);\n    }\n}\n\n//iterate through all the mappings and make them 0\n//since all the deposited amount has been withdrawn\n",
  "sourcePath": "/Users/kevanwilliams/demo/GFD-Token-main/client/contracts/Invoice.sol",
  "compiler": {
    "name": "solc",
    "version": "0.6.2+commit.bacdbe57.Emscripten.clang"
  },
  "schemaVersion": "3.4.4",
  "updatedAt": "2022-02-25T04:14:20.713Z",
  "devdoc": {
    "methods": {}
  },
  "userdoc": {
    "methods": {}
  }
}